:020000040800F2
:10000000680B0020D5000008DD000008DF000008B4
:1000100000000000000000000000000000000000E0
:10002000000000000000000000000000E1000008E7
:100030000000000000000000E3000008D5180008E0
:10004000E7000008E7000008E7000008E7000008F4
:10005000E7000008E7000008E7000008E7000008E4
:10006000E7000008E7000008E7000008E7000008D4
:10007000E7000008E7000008E7000008E7000008C4
:10008000E7000008E7000008E7000008E7000008B4
:10009000E7000008E7000008E7000008E7000008A4
:1000A000E7000008E7000008E7000008E700000894
:1000B000E7000008E7000008E7000008B123000897
:1000C0000348854600F02AF800480047F923000855
:1000D000680B00200448804704480047FEE7FEE71D
:1000E000FEE7FEE7FEE7FEE739190008C100000859
:1000F00030B50B46014600202022012409E00D46C0
:10010000D5409D4205D31D469540491B2546954047
:1001100040191546521E002DF1DC30BD064C01255C
:10012000064E05E0E36807CC2B430C3C984710349F
:10013000B442F7D3FFF7C8FF542400087424000822
:1001400031B500F009F8044600F006F80099001BEC
:100150008842F9D338BD00000148006870470000AC
:100160001400002002480168491C0160704700002B
:100170001400002010B506480168102211430160E8
:10018000002000F007F800F017F8002010BD000074
:100190000020024010B5044600F01CFF7D21C9007C
:1001A000FFF7A6FF01F084F900222146501E00F05F
:1001B0001FF8002010BD000008B507488169012222
:1001C0001143816180691040002200901146501E49
:1001D00000F00EF808BD000000100240C106C90E74
:1001E00001208840014908607047000000E100E0FC
:1001F00010B501F08DF910BD10B50C0606D54906F5
:10020000490E1C2461430818283004E01C24614373
:100210000818FF30093099B2002A06D001228272F4
:10022000C180190C0181002010BD002282728180E2
:10023000F9E71C224A43121810B5FF30FF30023094
:10024000926BC06901F0B7FD10BD1C224A43121821
:1002500010B5FF30FF32FF30013202309269C069C1
:1002600001F004FE10BD0000F0B54B065B0E1C460D
:100270001C225343CD091A18002D01D0283201E069
:10028000FF32093203461470C909FF335170E1335C
:10029000197A01293DD001211972947A4C49002C18
:1002A000547838D0002C147805685FD0A4002E5BF9
:1002B000760404D52E5B474F0E403E432E531478F0
:1002C0000568A4002E5B760604D52E5B424F0E40D7
:1002D0003E432E5314780568A4002E5B0E403D4922
:1002E0000E432E53117806688D00715B384C303404
:1002F0002140394C403C2143715301681078820001
:10030000885A344DF13D284020438852002018720D
:10031000F0BD0220F0BD002C11D014780568A400B7
:100320002E5B760604D52E5B0E402B490E432E53D2
:10033000046810788100605A254A303210E0157840
:100340000468AD00665B760404D5665B0E40214907
:100350000E436653046810788100605A1D4AF13AD2
:1003600010401D4A403A10436052CFE7A4002E5B74
:10037000760404D52E5B174F0E403E432E5314785F
:100380000568A4002E5B760604D52E5B124F0E4046
:100390003E432E5314780568A4002E5B0E400E4990
:1003A0000E432E53117806688D00715B094CF13CA9
:1003B0002140094C403C214371530568107881006D
:1003C000685A034A30321040204368529EE70000CA
:1003D0008F8F000080C00000C0800000F0B54B0689
:1003E000CA095B0E002A04D01C225A431218283274
:1003F00004E01C224A431218FF3209320024947090
:1004000013700346C909FF335170E133197A01298A
:100410001DD00121197251781B4E00291B4C1178F7
:10042000056816D089006F5A7F0605D56F5A374088
:10043000164E403637436F52117800688A00815A51
:10044000114D3035294010256940202515E0022046
:10045000F0BD89006F5A7F0404D56F5A37400C4EA7
:1004600037436F52117800688A00815A084DF13D78
:10047000294001252D0369406D00694021438152C7
:1004800000201872F0BD00008F8F000080800000F7
:1004900080C00000F0B54D066D0E2E461C2465434D
:1004A000CF092C18002F01D0283401E0FF34093483
:1004B0002670C90961700146FF31E260E131E370E5
:1004C0008C46097A01290DD0012261460A72E27830
:1004D0009A49002A08D0012A1FD0022A0ED0032AE6
:1004E00024D112E00220F0BD237802689D00535B06
:1004F0000B40FF33FF330233535317E02278036876
:1005000092009D5A0D409D5210E0237802689B0096
:10051000D55A0D400321490206E0237802689B006A
:10052000D55A0D40012189026918D15223780668F5
:100530009D00725B82490A4082490A431A43725302
:10054000A27A002A59D02278076895007B5B7C4A02
:100550007D4E134033437B53E38850265D08036888
:100560006D00F65AF6182378DF0001239B02FB1872
:10057000F552238950265D0803686D00F65AF61877
:100580002378DF004B11FB18F55263780768002BC6
:1005900023787BD09B00FD5A6D0404D5FD5A6B4E29
:1005A00015403543FD52237807689B00FD5A6D06C0
:1005B00005D5FD5A634E154040363543FD5225782A
:1005C0000368AD005E5B1640604A16435E532278B6
:1005D000036895005A5B5A4E303632400A435A53EC
:1005E000026820788300D05A584CF13C20400843E0
:1005F000D052002061460872F0BD6278002AA288BD
:1006000021D0530802685025AD5A5B00AD182278FE
:10061000D60001229202B218AB52227803689200EF
:100620009D5A6D0606D59D5A454E3540454E40367D
:1006300035439D52026820788300D05A404C3034B4
:100640002040202442E0530802685025AD5A5B0048
:10065000AD182278D6003E4AB218AB520268502339
:100660009B5A3B4D9A182378AD1CDB005B19D518BB
:10067000E2683E2A0BD9D3021B0CD20601D15B1EC5
:100680009BB29A020123DB031A4307E020E0D30365
:100690001B0CD20701D05B1C9BB29A022A802278E5
:1006A000036892009D5A6D0405D59D5A244E35402D
:1006B000264E35439D52026820788300D05A234C41
:1006C000F13C2040012424036040640060408EE738
:1006D0009B00FD5A6D0404D5FD5A1C4E1540354350
:1006E000FD52237807689B00FD5A6D0605D5FD5A1B
:1006F000144E154040363543FD5225780368AD0051
:100700005E5B16400F4A403216435E532278036800
:1007100095005A5B0D4EF13E324001263603724081
:10072000760072400A435A53036820788200985A30
:10073000034C30342040084398525AE78F89000018
:100740008F8F0000808000008081000080C000004A
:1007500004040000F0B54906490E1C244C4324183B
:10076000FF340934636122610022A2610346627092
:10077000FF332170E133197A012908D00121197260
:100780006569E1688D4204D96D1A656103E0022054
:10079000F0BD29466261A57A214E002D05D065780D
:1007A000002D02D0012D20D029E0056850277F5B65
:1007B0007D192778FF00BE19AE193E290ED9CD024A
:1007C0002D0CC90607D0A9020125ED03294300E03D
:1007D000A902318013E06D1EADB2F4E7CD032D0CFC
:1007E000C907F5D06D1CADB2F2E705685026765BFF
:1007F0000B4F751926783F1FF600F619A95321787B
:1008000000688C00015B074D294001252D036940DC
:100810006D006940044D294301531A720020F0BD58
:10082000060400008FBF000080800000F0B5024683
:10083000FF32E132137A012B0BD001244F06CB0992
:100840007F0E1472002B06D01C237B431B18283309
:1008500006E00220F0BD1C234B431B18FF33093375
:100860009C701F70CE095E70012424031025114B6B
:10087000002F0BD04906C90D002E10D00468605A15
:100880000D4E304068401843605210E001680888FF
:100890000A4E3040604068401843088007E0056811
:1008A000685A064E303E304060401843685200207F
:1008B0001072F0BD80800000BF8F0000BFBF00003D
:1008C000F0B506464806400E1C2141438D19EB63E6
:1008D0000021AA6329640121283537466970FF3752
:1008E0002870E137387A012806D03972EC686869D7
:1008F000A04203D9001B03E00220F0BD0446002003
:100900006861A87A00280CD0297830688A00825A59
:100910005306494A6B7839D5002B12D0012B2CD0C5
:1009200032E0A3B2AA882969306800F0C0FF3068BD
:100930005021095A09182878C200404810180C5252
:1009400068E050231B5AC90018183C4B1B1DC918DE
:1009500041183E2C08D9E002000CE30601D1401EEC
:1009600080B28002104306E0E003000CE20701D0F1
:10097000401C80B28002088006E05022125A1018F3
:10098000CA002E49511844522A8927E0002B02D070
:10099000012B1BD021E050231B5A1818CB002749EC
:1009A000591841183E2C08D9E002000CE30601D189
:1009B000401E80B28002104306E0E003000CE20714
:1009C00001D0401C80B28002088006E05022125AFA
:1009D0001018CA00194951184452EA88A3B229696B
:1009E000306800F064FF69781548002902D00129B9
:1009F00008D00FE02A78316892008B5A03400E48E5
:100A0000C03005E02A78316892008B5A03400D48C7
:100A100003438B52287831688200885A084B303360
:100A200018401023584020235840034B803318436C
:100A3000885200203872F0BD0080000002040000DF
:100A40008F8F000080C0000070B504460068403001
:100A50008088C00B02D0204600F07CFD206840302A
:100A6000818849050BD581880122920291438180BA
:100A7000204600F0CFF80021204600F0F5F820686D
:100A800040308188490404D5818801229203914332
:100A90008180206840308188890404D581880122C2
:100AA0005203914381802068403081880425C90425
:100AB000002910DA0188A9430180BD2021680002C5
:100AC00040310880204600F0B1F82068403081882D
:100AD000AA0291438180206840308188090518D599
:100AE00081880122D20291438180206840300188B0
:100AF0000822114301802068403001882943018089
:100B0000206840308088C043C00402D5204600F0F1
:100B1000D5F8206840308188890507D58188012271
:100B2000520291438180204600F096F820684030C0
:100B30008188C90504D58188FF22013291438180D3
:100B400070BDF8B500270446002807D02646FF36BA
:100B5000E136707A0025002802D005E00120F8BDBA
:100B60003572204600F03AF80320707201210BE044
:100B70001C20784302191046203041720772C5725A
:100B8000556395637F1CD5636068B842F0D8002038
:100B90000BE01C2242431219FF32013255721072CF
:100BA000D57255619561401CD56162688242F0D86A
:100BB0002068403001802068403005802068403047
:100BC0008580206840300582BD20226800024032C6
:100BD00010802034257171720020F8BD08B50068BE
:100BE0000A49884210D10A48C2690121C9050A434D
:100BF000C261C06900220840009011461F20FFF723
:100C0000F7FA1F20FFF7EAFA08BD0000005C004079
:100C10000010024010B5C41DFF34FA340121E06910
:100C200001F0EFF9E06901F0B4F910BD10B5044628
:100C30008069002806D007480169062291430161B6
:100C400000F04EFEFF34FF340234E06901F0C4F9D5
:100C500010BD000000ED00E0FF3010B5FF300230A5
:100C6000C06901F0BFF910BD0246FF32E132137ACC
:100C7000012B08D001231372002906D02030017106
:100C800000201072704702207047006880214030B9
:100C90008181F5E710B5872189000A580146FF31A7
:100CA000ED31104601F0B9F910BD00684030018BFC
:100CB0000122D203114301830020704710B504467E
:100CC000FF30FF300230C06901F0E8F9A069002868
:100CD00004D00348016906221143016110BD0000E0
:100CE00000ED00E0F8B5044600683B4DC00342D576
:100CF000296A0320000262680140024091423AD012
:100D0000E96928040143E961E969344E0140009131
:100D10003068A91508433060FFF71EFA074604E063
:100D2000FFF71AFAC01B64281BD83068C005F7D536
:100D3000286A03273F022A6AB843012109040A43AB
:100D40002A622A6A8A432A62286280070ED5FFF740
:100D500003FA064607E0FFF7FFF9811B20488142AE
:100D600001D90320F8BD286A8007F4D5286A616894
:100D7000B843084328622078C00705D0286BA168D3
:100D800080088000084328632078800706D5286BF8
:100D9000032109048843E16808432863207880061A
:100DA00005D5286B102188432169084328632068F2
:100DB000800305D5286B80218843A16908432863F7
:100DC0002088400505D5286B402188436169084388
:100DD00028630020F8BD00000010024000700040B1
:100DE00088130000F8B5054677480E460068F021E4
:100DF000C007C00F754CB04269D2734802685208F0
:100E00005200324302600068C007C00FB0427DD17B
:100E10002878800704D560688843A9680843606023
:100E20002878C00730D06868012818D0022819D067
:100E300003281AD021688907002967DA61688908C0
:100E4000890001436160FFF787F906466868012859
:100E500014D002281FD05E4F032828D032E021682A
:100E60008903E9E721688901E6E7616BC903E3E7E4
:100E7000FFF772F9801BB84201D983E0544F6068D4
:100E80000007800F0128F3D18FE0FFF765F9801B81
:100E9000B84201D976E04E4F60680007800F022803
:100EA000F3D182E0FFF758F9801BB8426AD8606836
:100EB0000007800F0328F5D177E0FFF74DF9801B7D
:100EC000B8425FD860680007800FF6D16DE02878DF
:100ED000800704D560688843A96808436060287863
:100EE000C00755D06868012819D002281AD00328F5
:100EF0001BD021688907002955DA616889088900B3
:100F000001436160FFF728F9074600E04BE068689D
:100F1000012813D002281DD0032827D034E02168EF
:100F20008903E8E721688901E5E7616BC903E2E726
:100F3000FFF712F9C11B2648814223D860680007D9
:100F4000800F0128F4D123E0FFF706F9C11B2048E8
:100F5000814217D860680007800F0228F4D117E09B
:100F6000FFF7FAF8C11B1A4881420BD860680007E6
:100F7000800F0328F4D10BE0FFF7EEF8C11B1448F3
:100F8000814201D90320F8BD60680007800FF3D1CA
:100F90000D48016849084900314301600068C007F5
:100FA000C00FB04201D00120F8BD2878400706D517
:100FB0006068072109028843E968084360600020EF
:100FC000FFF7E8F80020F8BD0020024000100240C2
:100FD0008813000010B500F011F805494968054A6A
:100FE0000906090F515CC8400349086010BD0000A4
:100FF00000100240442400080000002030B516A371
:101000000FCB89B06C460FC417A30FCB0FC41A497E
:101010004A680C20144604401848042C05D0184B8C
:10102000082C04D00C2C00D1184609B030BD940215
:10103000240F6D462C5DC96A04AD0907090FD20360
:10104000695C920F022A02D0032A00D11846FFF7EA
:101050004FF86043E9E700000203040506070809AA
:101060000A0B0C0D0E0F10100102030405060708F1
:10107000090A0B0C0D0E0F100010024000127A002E
:10108000006CDC02F8B504460078F84DC0075ED06D
:1010900068680007800F012816D068680007800F75
:1010A000022804D16868C003800F02280CD0286889
:1010B00001263604B04328602868B700B84328608A
:1010C000FFF74AF800900CE0286880033FD560687D
:1010D000002870D03BE0FFF73FF80099401A6428E1
:1010E0006AD828688003F6D4606801280AD00028EE
:1010F00001D0052808D029682846B143296029680D
:10110000B94307E0284603E02968284639432960A7
:10111000016831430160606800280CD0FFF71CF8BB
:10112000064604E0FFF718F8801B6428D8D8286822
:101130008003F7D50BE0FFF70FF8064604E0FFF752
:101140000BF8801B6428CBD828688003F7D420785C
:101150000127800700283FDA68680007800F13D056
:1011600068680007800F022804D16868C003800FF8
:10117000012809D0E068002828681ED0384328607C
:10118000FEF7EAFF06460BE0286880070BD5E0680B
:10119000012810D107E0FEF7DFFF801B64289FD8ED
:1011A00028688007F7D52868F82188432169C90095
:1011B0000843286010E058E105E14008400028603D
:1011C000FEF7CAFF064604E0FEF7C6FF801B642850
:1011D00086D828688007F7D42078000721D5206AB0
:1011E0000028686A0ED038436862FEF7B5FF0646ED
:1011F00004E0FEF7B1FF801B642897D8686A800777
:10120000F7D50EE0400840006862FEF7A5FF0646ED
:1012100004E0FEF7A1FF801B642887D8686A800776
:10122000F7D4207804264007002866DAE969B0067A
:101230000143E961E96901408D4800910168821527
:1012400011430160FEF788FF009005E0FEF784FF80
:101250000099401A6428A2D885480068C005F5D5D1
:10126000286A400840002862286AB0432862FEF7D6
:1012700073FF009006E0FEF76FFF0099411A7D486A
:1012800081428CD8286A8007F5D4A06801280BD049
:10129000002801D0052809D0296A284649084900B4
:1012A0002962296AB14307E0284603E0296A2846F3
:1012B00031432962016A39430162A06800280ED0D7
:1012C000FEF74AFF009006E0FEF746FF0099411A3C
:1012D0006848814277D8286A8007F5D50DE0FEF787
:1012E0003BFF009006E0FEF737FF0099411A614886
:1012F000814268D8286A8007F5D42078C00634D5A2
:10130000606901280CD0401D686B23D030436863AE
:10131000686B400840006863FEF71EFF064621E048
:10132000686B30436863686B38436863FEF714FF8B
:10133000064604E0FEF710FF801B642843D8686B64
:101340008007F7D5686BF8218843A169C900084375
:1013500068630AE0B0436863F4E7FEF7FDFE801BB4
:10136000642830D8686B8007F7D4207880063CD595
:1013700068680007800F032815D068680007800F91
:10138000022804D16868C003800F03280BD0E069ED
:10139000002819D0686B0121090408436863FEF72F
:1013A000DBFE06460BE0686BC0031ED5E069012832
:1013B0006ED11AE0FEF7D0FE801B642861D8686BFE
:1013C000C003F7D511E05CE0696B012000048143A4
:1013D0006963FEF7C1FE064604E0FEF7BDFE801B12
:1013E00064284ED8686BC003F7D4606A00284DD0DB
:1013F00069680907890F02294AD0012636060228A2
:10140000286805D0B0432860FEF7A6FE04463AE0FF
:10141000B0432860FEF7A0FE074604E0FEF79CFEFE
:10142000C01B64282DD828688001F7D4E86A216B96
:10143000000900010843E862A16AE06A084369689C
:101440007B22D203914308436860286830432860B8
:10145000FEF782FE044604E0FEF77EFE001B6428D1
:101460000FD828688001F7D510E011E00010024085
:101470000070004088130000FEF76EFE001B642819
:1014800001D90320F8BD28688001F5D40020F8BDFB
:101490000120F8BD042204490428086902D09043C1
:1014A000086170471043FBE700E000E07047000070
:1014B000094910B5401E884201D9012010BD074CD2
:1014C00060610321081F00F023F80020A0610720BD
:1014D0002061002010BD0000FFFFFF0000E000E0E1
:1014E00010B5FFF7E3FF10BD10B50022054906480F
:1014F00000F036FC0549044800F0F5FD024800F014
:1015000043FE10BD1C0000201001002050000020F0
:101510008307FF22DB0E9A408907090E99400028B5
:101520000BDA0007000F0838830808489B001818DA
:10153000C36993430B43C3617047830804489B000E
:101540001B181868904308431860704700ED00E0CE
:1015500000E400E0F0B585B00446002069468880CC
:1015600020462030029079E199890F073F0F24D05F
:10157000BE00815B9980998809046FD5815BBF4A61
:10158000114081531C2078430519FF350935A87A8D
:10159000002820687DD029788A00825A520479D5A3
:1015A0005022125ACB00B64912185918515A8905BF
:1015B000890D00916FD0EA88C0E09989C9062AD4C4
:1015C0000188B04A1140018020685021095A2546FF
:1015D000283509182878C200A9481018085A80052B
:1015E000800D2064A16B0818A06300212046FEF73F
:1015F00020FE029800790028B5D068690028B2D191
:10160000029800798021084321684031888102983E
:101610000021017122E12546FF350388093569461D
:101620008B80898809051AD5118A09182878C20083
:101630009348001D1018085A294683059B0DAB617D
:10164000AA88E431206800F023F9206801888B4AD9
:10165000114001802046FFF71DFBFFE095E0694641
:1016600089880904D6D50188844A11400180206800
:101670005021095A824E08182978361DC900891947
:10168000405A83059B0DAB610CD0AA88296920685C
:1016900002E033E045E055E000F0FAF8A969286976
:1016A0004018286100212046FEF7CFFD2068502118
:1016B000095A08188119E8683E280AD9C202120C92
:1016C000C00601D1521E92B290020122D2031043F1
:1016D00006E0C203120CC00701D0521C92B2900265
:1016E000088021680888684A10400122120350408F
:1016F00052005040654A10430880AFE05021095A1B
:101700000A182978CB005E49091D5918515A8905D4
:10171000890D009121D0AA882969009B00F0B8F8B2
:101720001BE05022CB00125A55491218091D5918B6
:10173000515A8905890D009104D02A892969009B95
:1017400000F0A6F8287821688200885A4D4B803333
:1017500018404E4B403318438852A9690098081826
:10176000A861296900980A182A616B69002B03D0C7
:10177000E9680098814204D929782046FEF765FD82
:1017800003E029782046FEF7E5FF684680880006DA
:1017900064D51C20474320683D19825B39490A40C3
:1017A00082532835A87A002812D028782168820030
:1017B0008A5A52061FD55022525A5118C200304838
:1017C0001018085A83059B0DAB6125D0EA881FE0ED
:1017D00020685021095A09182878C2002848101892
:1017E000085A83059B0DAB6121D0AA88296920681E
:1017F00000F05DF81BE05022525A5218C1002048F8
:10180000001D0818105A83059B0DAB6104D02A896E
:101810002969206800F04BF8297820688900425A2D
:10182000184B80331A40184BF1331A434252206848
:1018300002464030018A88182978114AC90089185F
:10184000405A8005800DA86129690A182A616B69D0
:101850002978002B20460DD0FFF732F82068024689
:10186000403291886B469981090400D57CE60020BE
:1018700005B0F0BDFEF7DDFCF0E700008F0F0000C3
:10188000020400000F8F00008FBF00008080000066
:10189000101801225B1C92025B088018002B05D0F7
:1018A00002880A80801C891C5B1EF9D170471018C1
:1018B00001225B1C920210B55B088018002B08D037
:1018C0004A780C78120222430280801C891C5B1E1D
:1018D000F6D110BD10B5FEF745FCFFF701FE10BDB7
:1018E00030B599B020200125002400900795099477
:1018F0006846FFF7C7FB03200E900F9401210D955A
:1019000010940DA8FFF76EFA68041190179411A8AF
:10191000FFF7E8F9FFF75EFB7D21C900FEF7E8FB62
:10192000FFF7C6FD0420FFF7B5FD00221146501E4B
:10193000FEF75EFC19B030BD124801680122114368
:1019400001604168104A1140416001680F4A11402E
:1019500001600168012292049143016041683F22C5
:10196000120491434160C16A09090901C162016B16
:10197000074A11400163416B490849004163002156
:1019800081607047001002400CB8FF08FFFFF6FEB0
:101990002CFEFCFF10B58522920012585268904729
:1019A000002010BD134610B50A46002100F0E8FAE9
:1019B000002010BD134610B50A46002100F076FB4A
:1019C000002010BD10B50446802100F055FB002119
:1019D000204600F051FB10BD10B5FF210522F53166
:1019E0000A5000231A46194600F0CAFA002010BD1A
:1019F00010B5FF230224F5331C5082611346C261E7
:101A00000A46002100F052FB002010BD10B5FF2156
:101A10000422F5310A5000231A46194600F046FB0D
:101A2000002010BD10B50A46024903A000F0D4F80A
:101A3000004810BD3403002048494420436F6E66BF
:101A40006967000012200880004870473C000020B1
:101A500010B50A46024903A000F0BEF8004810BDC8
:101A60003403002048494420496E746572666163FE
:101A700065000000042008800048704738000020FE
:101A800010B50A46024903A000F0A6F8004810BDB0
:101A90003403002053544D6963726F656C65637441
:101AA000726F6E696373000010B50A46024903A0A5
:101AB00000F092F8004810BD3403002053544D3319
:101AC000322048756D616E20696E7465726661635F
:101AD0006500000010B50A46024903A000F07CF83A
:101AE000004810BD3403002030303030303030300A
:101AF0003030314100000000F8B50D4604464988F9
:101B0000FF300A0AFF300230130000F059FC084988
:101B100005091649493E46490069237C02682AE0C6
:101B2000217C02264069002905D0C16A68468847A1
:101B30000146467040E0816AF8E7C9B20B0000F048
:101B40003FFC0604080F13171E2F0069227C436810
:101B500002E00069227C836869461046984712E0DB
:101B60000069227CC368F7E70069227C0369F3E718
:101B70000069237C426969461846904703E0006982
:101B8000227C8369E8E7014616E0217C002907D121
:101B90004069416B68468847F5E7217C002904D0FD
:101BA00029462046FFF70EFFF8BD4069016B6846E5
:101BB0008847072201464270684600880028F3D013
:101BC000EA88002AF0D0824200D9024668460280A4
:101BD0002046FFF70DFFF8BD70B5002300281CD08C
:101BE0000446002502E06D1CEDB2641C2678002E30
:101BF000F9D16C00A41C1480CC5403225B1CCA5481
:101C000000245B1C06E0CA545B1CDAB28C54521CE4
:101C1000D3B2401C0278002AF5D170BDFF300021FC
:101C2000FF300230806901730846704710B50446E2
:101C3000812100F0B7F8FF34FF340234A069002896
:101C400003D000F0AFFB0020A061002010BD000019
:101C50002221018000487047880000200A2101806D
:101C600000487047B800002070B5054600240423E2
:101C70000322812100F078F9102000F095FBFF3558
:101C8000FF350235A861002803D0002101732046EA
:101C900070BD0124FBE710B51346FF244322FD3439
:101CA000D200245C1258032C08D1147B002C05D1DF
:101CB000012414730A46812100F0F8F9002010BDB8
:101CC00070B543230022DB000D781B5860261446B4
:101CD00035401BD0202D3ED14A78022A13D0032A4A
:101CE0000AD00A2A0BD00B2A03D0FFF76BFE022082
:101CF00070BD887818602EE00122194622E04888DD
:101D0000000A586027E00122191D1BE04D78062DBE
:101D100004D00A2D19D00B2D1DD11AE04B881B0AB7
:101D2000222B02D0212B06D00BE0CA884A2A00D9E8
:101D30004A220A4C05E0094CCA88183C092A00D9F5
:101D400009222146FFF754FE05E001221946083119
:101D5000F8E788789860002070BD0000C40000207B
:101D600010B5002813D0C31DFF33FA335C69002C73
:101D700001D000245C61002900D01961FF210123FA
:101D8000FD310B54027000F0ABF8002010BD0220B2
:101D900010BDFF3010B5FF300230006AFEF71EFBA9
:101DA000002010BDFF3010B5FF300230006AFEF792
:101DB0005BFA002010BDFEB50446FF30E51DE130A2
:101DC000FF35FA3513460190002908D06869426949
:101DD000002A49D00198007F032843D044E02646DA
:101DE000FF3681362046716F1430022934D1C26823
:101DF00081680092914207D9891A81608AB2194696
:101E00002046FFF7D7FD13E0406811460746FEF76E
:101E10006FF9002913D10098874210D3B06F874221
:101E20000DD2002211462046FFF7C4FD0020B06706
:101E300000231A461946204600F0A2F80CE0686913
:101E4000C168002905D00198007F032801D12046F0
:101E500088472046FFF7C0FD2878012804D10020DC
:101E6000287001E0204690470020FEBD70B5054671
:101E7000FF35E1352B46203316460446002907D0AE
:101E800058698269002A29D0287F032824D025E0B8
:101E9000FF21F531E01D0959FD3003291ED182686B
:101EA000C1688A420BD9511A8160C068814200D34F
:101EB00001468AB231462046FFF774FD0EE05869AC
:101EC0000169002904D0287F032801D120468847D2
:101ED0002046FFF79BFD01E020469047002070BDA3
:101EE00010B51549C41DC861FF341449FA341448AB
:101EF00021620860022205208A60486003200A618E
:101F0000C8600020886108620846FEF71AFE0022B9
:101F100018231146206AFEF76FF95823002280210A
:101F2000206AFEF769F9FF23013300228121206A2C
:101F3000FEF762F9002010BD480700204805002088
:101F4000005C0040FF30CA09FF3049060230490EEC
:101F50001C23006A59430818002A01D0203001E0F0
:101F6000FF300130807A704710B5FF301C46FF30DB
:101F700002301346006A2246FEF78CFA002010BD9C
:101F8000FF3010B5FF300230006AFEF7E3FB00209F
:101F900010BD70B50022044640231146FFF7E4FF50
:101FA0004025FF20113005512B460022802120467C
:101FB000FFF7DAFFFF200121FD3025620155E01D0A
:101FC000FF30FA308169002904D0406921794268E4
:101FD00020469047002070BDFF30E130417F0177FF
:101FE0000020704710B5FF21FD31095C032906D19F
:101FF000852189000958C969002900D08847002037
:1020000010BD017400207047FF3010B5FF30023062
:10201000006AFEF729FE002010BD70B5044641207D
:10202000C0002018054600F04AF82146FF318131F2
:102030000122084680304A67C2898A67007AC10651
:10204000C90E0AD001290DD0022910D0C109C90139
:10205000204600F011F8002070BD2946204600F00F
:1020600098F8F8E72946204600F07FF9F3E729467B
:10207000204600F005F9EEE7FF3010B5FF300230E2
:10208000006AFEF7D3FB002010BDFF3010B5FF3013
:102090000230006AFEF709FE002010BDFF30E1307B
:1020A000017F41770421017700207047FF3010B590
:1020B000FF300230006AFEF703FC002010BD0A78F2
:1020C00002704A784270CB788A781B02D21842801C
:1020D0004B790A791B02D21882808A79C979090260
:1020E0005118C180704702460020002904D0FF32F9
:1020F000FF320232516170470220704710B58522CD
:10210000920012580224002A04D012689047002836
:1021100000D10024204610BD70B50E468978194DB7
:1021200004462970012904D931462046FFF74AFCAC
:1021300070BD2046FF30E130027F022A15D0032A0D
:10214000F2D1002917D0606888420AD0C1B2204677
:10215000FFF720FC297861602046FFF7CFFF0228B7
:10216000E2D02046FFF752FC70BD0029F9D00322CF
:1021700061600277F0E70222027720466160FFF794
:1021800009FCEEE70E01002010B5FFF77EFF0020EE
:1021900010BDF8B500220092C61DFF364C781746D8
:1021A000FA3632460125203A230000F009F90A3CAC
:1021B000564150410906412B2841FFF79DFC5DE047
:1021C00004468888002818D1C888002815D1887846
:1021D00017464606107F760E03280ED0BE7731468E
:1021E0002046FFF711FF2046FFF710FC002E02D01B
:1021F0000220387742E03D7740E0204618E0FFF7C4
:102200008BFF3BE0CB88012B12D1127F022A02D038
:10221000032A0DD104E0012201460831876013E052
:102220000122011D10E0127F022A04D0032A02D0ED
:10223000FFF7C8FB22E0C5607168002901D00321C7
:10224000C160014602220C31FFF7D2FB16E00446C2
:102250004888012812D1756009E00446107F0228E1
:1022600001D00328C9D14888012807D17760706957
:102270008268204690472046FFF7C8FB0098F8BDCB
:10228000F8B504460D462878E61D4006FF360027BF
:102290000979800FFA36012809D06A78304620384B
:1022A000002A38D0012A1ED0032A3DD106E07069E9
:1022B00029468268204690470020F8BD007F02280A
:1022C00017D003282CD16888002806D1002904D013
:1022D000802902D02046FFF7CFFE70692946826828
:1022E0002046904713E0007F022802D0032817D130
:1022F00004E0002918D080291AD115E06888002848
:1023000012D1480603D02046FFF743FDE5E72046FB
:10231000FFF77CFB08E0007F022807D003280BD0E2
:1023200029462046FFF74EFB3846F8BD4806FBD04D
:102330002046FFF7A1FEF7E7C80904D04806400D84
:102340000519143504E04806400D0519FF3505351B
:102350002046FFF7F7FD002800D001202860022268
:1023600029462046FFF744FBDEE770B50446FF3000
:10237000E130007F0D4603280FD1287901280CD8C1
:10238000852080000059826820469047E888002810
:1023900006D12046FFF73AFB02E02046FFF712FB8A
:1023A000002070BD704700000048704734050020D1
:1023B00010B50248FEF748FB10BD0000480500209C
:1023C00030B47446641E2578641CAB4200D21D46AE
:1023D000635D5B00E31830BC184702E008C8121FB9
:1023E00008C1002AFAD170477047002001E001C1FE
:1023F000121F002AFBD1704708B5FDF7BBFEFFF79F
:102400006FFA0D484269012149040A43426140695B
:1024100008400090FFF768F800210848102201707A
:1024200042708170C170042204490548FFF733FCF3
:102430006420FDF785FEF6E700100240180000203A
:102440001001002000000000010203040102030447
:10245000060708097424000800000020100100008D
:10246000DA2300088425000810010020580A000023
:10247000EA23000800127A000000000000000000BB
:102480000102030406070809000000000000000024
:10249000451A0008751A0008811A0008A91A0008D0
:1024A000D51A0008251A0008511A00080403090467
:1024B000120100020000004083042B5700020102B9
:1024C00003010000691C00082D1C0008C11C000845
:1024D00000000000000000001D1C000800000000BB
:1024E000000000000000000000000000511C000877
:1024F000511C0008511C00085D1C00080902220044
:10250000010100E032090400000103010200092179
:1025100011010001224A000705810304000A00009E
:10252000092111010001224A000000000A060002F0
:10253000000000400100000005010902A10109019D
:10254000A10005091901290315002501950375014D
:1025500081029501750581010501093009310938AC
:102560001581257F750895038106C0093C05FF0983
:10257000011500250175019502B12275069501B17D
:0425800001C0000096
:04000005080000C12E
:00000001FF
